:100000000C9436020C945E020C945E020C945E0218
:100010000C945E020C945E020C945E020C945E02E0
:100020000C945E020C945E020C945E020C945E02D0
:100030000C945E020C945E020C945E020C945E02C0
:100040000C94080B0C945E020C94780B0C94520BDD
:100050000C945E020C945E020C945E020C945E02A0
:100060000C94AA0B0C945E0208000000BE92244976
:10007000123EABAAAA2ABECDCCCC4C3E00000080DA
:10008000BEABAAAAAA3E00000000BF000000803F4D
:100090000000000000084178D3BB4387D1133D190D
:1000A0000E3CC3BD4282AD2B3E68EC8276BED98F3A
:1000B000E1A93E4C80EFFFBE01C4FF7F3F0000007E
:1000C000000043757272656E7420636F6E747261A6
:1000D00073743A20002D202D20446563726561738E
:1000E0006520436F6E7472617374002B202D20495C
:1000F0006E63726561736520436F6E7472617374B1
:100100000054202D2054656D7065726174757265A0
:10011000204D6F64650043202D2052474220436FDD
:100120006C6F72204D6F6465004C202D204C696708
:100130006874204C6576656C204D6F64650053656E
:100140006C656374206F7065726174696F6E206D89
:100150006F64653A000A3D3D3D204C696768742034
:1001600053656E736F727320546573742042656EAD
:100170006368203D3D3D005B4248313735305D20AE
:100180004552524F523A20756E646566696E6564D9
:10019000206572726F72005B4248313735305D20E6
:1001A0004552524F523A206F7468657220657272E0
:1001B0006F72005B4248313735305D204552524FF7
:1001C000523A207265636569766564204E41434BFF
:1001D000206F6E207472616E736D6974206F66207B
:1001E00064617461005B4248313735305D204552AF
:1001F000524F523A207265636569766564204E41BC
:10020000434B206F6E207472616E736D6974206F42
:10021000662061646472657373005B4248313735F0
:10022000305D204552524F523A20746F6F206C6FF0
:100230006E6720666F72207472616E736D697420D0
:10024000627566666572005B4248313735305D2005
:100250004552524F523A20756E646566696E656408
:10026000206572726F72005B4248313735305D2015
:100270004552524F523A206F74686572206572720F
:100280006F72005B4248313735305D204552524F26
:10029000523A207265636569766564204E41434B2E
:1002A000206F6E207472616E736D6974206F6620AA
:1002B00064617461005B4248313735305D204552DE
:1002C000524F523A207265636569766564204E41EB
:1002D000434B206F6E207472616E736D6974206F72
:1002E000662061646472657373005B424831373520
:1002F000305D204552524F523A20746F6F206C6F20
:100300006E6720666F72207472616E736D697420FF
:10031000627566666572004572726F723A204D4C66
:100320005839303631342073656E736F72206E6FBA
:100330007420666F756E64004572726F723A205455
:10034000435333343732352073656E736F72206ECA
:100350006F7420666F756E64004572726F723A201A
:100360004248313735302073656E736F72206E6F7F
:100370007420666F756E6400436F6E74726173747F
:100380003A2000436F6E74726173743A20005377A1
:1003900069746368656420746F2054656D7065725C
:1003A0006174757265204D6F64650053776974637D
:1003B00068656420746F2052474220436F6C6F72EF
:1003C000204D6F64650053776974636865642074B9
:1003D0006F204C69676874204C6576656C204D6FA2
:1003E0006465005B4248313735305D20446576698D
:1003F0006365206973206E6F7420636F6E66696732
:10040000757265642100C2B0430054656D706572F9
:1004100061747572653A2000000000002400270016
:100420002A00000000080002010000030407000089
:1004300000000000000001020408102040800102BA
:10044000040810200102040810200000000025000C
:1004500028002B0004040404040404040202020221
:100460000202030303030303C90CB71511241FBEC3
:10047000CFEFD8E0DEBFCDBF11E0A0E0B1E0E0E516
:10048000F4E302C005900D92AA33B107D9F723E037
:10049000AAE3B1E001C01D92AB3AB207E1F712E066
:1004A000C5E3D2E004C02197FE010E941916C433AF
:1004B000D107C9F70E94F80D0C941B1A0C94000088
:1004C000089508958F929F92AF92BF92CF92DF923C
:1004D000EF92FF92CF932091930330919403821770
:1004E0009307E8F54B01AA24BB24C82DC52ED62EB0
:1004F000E72EFF24BC2DA42F20919903222361F025
:10050000829E40011124C92D2C9D60011124BD2D16
:10051000249FF0011124AF2FE0919F03E0909A03F4
:10052000F0909B0330919C03E31323C09C01220FA6
:10053000331F820F931F8E0D9F1DE0919C03E80FC8
:10054000F92FF11DC083E0919D03E80FF92FF11DF4
:10055000B08320919E03820F911DFC01A083CF9157
:10056000FF90EF90DF90CF90BF90AF909F908F90D3
:100570000895880F991F880F991F8E0D9F1D472F73
:10058000552766277727222349F030E0249F700102
:10059000259FF00C349FF00C11244F2DE80FF92FFC
:1005A000F11D4083CACF90E0FC01EE5DFB4F24912A
:1005B000FC01EA5CFB4F3491FC01EC5AFB4FE491E7
:1005C000EE23C9F0222339F0233001F1A8F42130C1
:1005D00019F1223029F1F0E0EE0FFF1FE65BFB4F2F
:1005E000A591B4918FB7F894EC91611126C0309524
:1005F0003E233C938FBF08952730A9F02830C9F0DF
:10060000243049F7809180008F7D03C08091800065
:100610008F7780938000DFCF84B58F7784BDDBCF69
:1006200084B58F7DFBCF8091B0008F778093B00031
:10063000D2CF8091B0008F7DF9CF3E2BDACFCF9310
:10064000DF9390E0FC01EA5CFB4F24918C5A9B4FB6
:10065000FC0184918823D1F090E0880F991FFC0160
:10066000E85EFB4FA591B491FC01E65BFB4FC591A1
:10067000D49161110EC09FB7F8948C91E22FE09550
:100680008E238C932881E223E8839FBFDF91CF9153
:1006900008958FB7F894EC91E22BEC938FBFF6CFCF
:1006A0003FB7F8948091370290913802A0913902B7
:1006B000B0913A0226B5A89B05C02F3F19F00196CC
:1006C000A11DB11D3FBFBA2FA92F982F8827BC01AC
:1006D000CD01620F711D811D911D42E0660F771FD4
:1006E000881F991F4A95D1F708950F931F93CF93B1
:1006F000DF93CDB7DEB729970FB6F894DEBF0FBEF4
:10070000CDBF80919A0390919B03892B09F47CC003
:100710000E9450030091A0031091A1032091A20315
:100720003091A303601771078207930740F4609329
:10073000A0037093A1038093A2039093A30300915D
:10074000A0031091A1032091A2033091A303601B89
:10075000710B820B930B6C32714081059105C0F2D5
:10076000F89480919503909196039A838983E09100
:100770009A03F0919B03DF01119680818987909104
:100780009103E091A403F091A5038091A60399231E
:1007900009F445C09081982B988790818095892392
:1007A0008F838F818C8388E08B8358856F81498507
:1007B0003B812C8189819A81508347FD252F3A9571
:1007C0002083262F39F0441F00C000006083000002
:1007D00000C0F2CF38E04D9160830000019761F7CF
:1007E000F093A503E093A40349873B832C839A836A
:1007F000898378940E9450036093A0037093A103AF
:100800008093A2039093A30329960FB6F894DEBFBA
:100810000FBECDBFDF91CF911F910F9108959081B1
:10082000982B98879081809589238F838F818E83E1
:1008300088E08D8358856F8149853D812E8189812E
:100840009A81508347FD252F00C000C0208300C03F
:1008500000C000C000C000C060830000262F3A9591
:1008600041F0441F000000C000C000C000C000C034
:10087000E8CF38E04D9100C0608300C0019709F7D0
:10088000F093A503E093A40349873D832E83AFCF64
:100890008F929F92AF92BF92CF92DF92EF92FF9290
:1008A0004B015C010E9450036B017C010E945003CC
:1008B0006C197D098E099F09683E73408105910579
:1008C000A8F321E0821A9108A108B10888EEC80EA9
:1008D00083E0D81EE11CF11C81149104A104B10431
:1008E00029F7FF90EF90DF90CF90BF90AF909F904F
:1008F0008F900895AF92BF92CF92DF92EF92FF92C6
:100900000F931F93CF93DF936C017B018B01040F37
:10091000151FEB015E01AE18BF08C017D10759F0D3
:100920006991D601ED91FC910190F081E02DC60115
:100930000995892B79F7C501DF91CF911F910F910F
:10094000FF90EF90DF90CF90BF90AF900895FC01A3
:10095000538D448D252F30E0842F90E0821B930B24
:10096000541710F0CF96089501970895FC01918DCA
:10097000828D981761F0A28DAE0FBF2FB11D5D96CD
:100980008C91928D9F5F9F73928F90E008958FEF6F
:100990009FEF0895FC01918D828D981731F0828D23
:1009A000E80FF11D858D90E008958FEF9FEF08957A
:1009B000FC01918D228D892F90E0805C9F4F821BDE
:1009C00091098F739927089581EB92E00E94D804D2
:1009D00021E0892B09F420E0822F089580E090E047
:1009E000892B29F00E94E40481110C9400000895E1
:1009F000FC01A48DA80FB92FB11DA35ABF4F2C9194
:100A0000848D90E001968F739927848FA689B7898A
:100A10002C93A089B1898C91837080648C93938D81
:100A2000848D981306C00288F389E02D80818F7D24
:100A300080830895EF92FF920F931F93CF93DF93DC
:100A4000EC0181E0888F9B8D8C8D98131AC0E8890A
:100A5000F989808185FF15C09FB7F894EE89FF89D9
:100A60006083E889F98980818370806480839FBF77
:100A700081E090E0DF91CF911F910F91FF90EF9077
:100A80000895F62E0B8D10E00F5F1F4F0F73112787
:100A9000E02E8C8D8E110CC00FB607FCFACFE889C2
:100AA000F989808185FFF5CFCE010E94F804F1CF4E
:100AB000EB8DEC0FFD2FF11DE35AFF4FF0829FB736
:100AC000F8940B8FEA89FB8980818062CFCF0F93E6
:100AD0001F93CF93DF938C01D0E0C0E0F801EC0FBF
:100AE000FD1F6491662341F081EB92E00E941A059C
:100AF000892B11F02196F2CFCE01DF91CF911F917A
:100B00000F910895CF93DF93EC01888D8823B9F07E
:100B1000AA89BB89E889F9898C9185FD03C0808108
:100B200086FD0DC00FB607FCF7CF8C9185FFF2CF85
:100B3000808185FFEDCFCE010E94F804E9CFDF91DF
:100B4000CF910895DC01ED91FC910190F081E02DB1
:100B5000099420915B01260F3327331F2132310581
:100B6000ECF420918702FC0190E080E0243069F0F1
:100B700082E00895A0915B012191AC01455C5E4F3C
:100B8000A40FB52FB11D2C930196861798F3809171
:100B90005B01680F60935B0180E0089581E0089538
:100BA0001092870281E0809386021092610261E0D8
:100BB00082E10E94D30261E083E10E94D302E9EB6B
:100BC000F0E080818E7F808380818D7F808388E4C8
:100BD0008093B80085E48093BC0008951092600271
:100BE00010925F0210928E021092B0020E94D00505
:100BF00080E692E090935E0280935D0281E692E04F
:100C000090935C0280935B020895CF93DF9391E011
:100C100090933A018823B9F0C091B800D091BA00FE
:100C20008091BC008A7B8093BC0060E082E10E94DE
:100C3000D30260E083E10E94D3020E94D005D093EA
:100C4000BA00C093B800DF91CF9108958F929F9220
:100C5000AF92BF92CF92DF92EF92FF920F931F93CA
:100C6000CF93DF93D091B002D13208F0D7C0182FC4
:100C7000C091AF020E9450036B017C0180918702FA
:100C800081116BC082E080938702109386028FEF00
:100C90008093850210928402D0938302AFE8B2E081
:100CA000E3E6F2E080E0D81391C0109262028091F6
:100CB0006202CC0FC82BC093620280916102813026
:100CC00009F088C0109261020E9450036B017C0100
:100CD000809162028093BB008091890290918A0288
:100CE000A0918B02B0918C02892B8A2B8B2BA1F0C7
:100CF0000E9450030091890210918A0220918B0278
:100D000030918C026C197D098E099F09061717070F
:100D10002807390708F442C08091BC0083FDD8CF72
:100D200085EC8093BC000E9450036B017C01809194
:100D30008702823009F450C0809185028F3F09F408
:100D40006FC080918502803209F46CC08091850269
:100D5000803309F469C084E026C0809189029091B3
:100D60008A02A0918B02B0918C02892B8A2B8B2B4B
:100D700009F484CF0E9450038090890290908A02E7
:100D8000A0908B02B0908C026C197D098E099F098E
:100D900086169706A806B90608F070CF80918802DB
:100DA0000E94050685E010928E021092B002109209
:100DB0008D02DF91CF911F910F91FF90EF90DF9007
:100DC000CF90BF90AF909F908F9008959D919193F9
:100DD0008F5F69CF85EEA5CF8091890290918A02BD
:100DE000A0918B02B0918C02892B8A2B8B2B09F45A
:100DF0009ECF0E9450030091890210918A02209197
:100E00008B0230918C026C197D098E099F0906179F
:100E100017072807390708F08ACFC0CF81E0C3CF72
:100E200080E0C1CF82E0BFCF83E0BDCF1F93CF93DF
:100E3000DF93EA01122FDC0111968D919C91DC0168
:100E4000ED91FC910280F381E02D0995C817D90737
:100E500029F4812F0E94260691E0811190E0892FCC
:100E6000DF91CF911F910895CF93DF93EC018B8198
:100E70008823A1F0888191E090938D028093AF0246
:100E800010928E021092B00281E00E94260691E03C
:100E9000811190E0892FDF91CF9108950E94EE0596
:100EA00081E08B83CE010E943407982F8111E2CF1D
:100EB000F1CF8F929F92AF92BF92CF92DF92EF923B
:100EC000FF920F931F93CF93DF93D82FC62F142F2A
:100ED000613208F09CC00E9450036B017C0180913C
:100EE000870281116FC081E0809387021093860290
:100EF0009FEF90938502109284029C0F909383023F
:100F00008093620280916202DD0FD82BD09362023F
:100F100080916102813009F07CC0109261020E94D0
:100F200050036B017C01809162028093BB00809131
:100F3000890290918A02A0918B02B0918C02892B38
:100F40008A2B8B2BA1F00E945003009189021091F3
:100F50008A0220918B0230918C026C197D098E09D6
:100F60009F09061717072807390708F44CC0809116
:100F7000BC0083FDD8CF85EC8093BC000E94500359
:100F80006B017C0180918702813009F444C080911B
:100F900084028C1710F4C0918402E3E6F2E0ABE324
:100FA000B2E080E08C1359C08C2FDF91CF911F915C
:100FB0000F91FF90EF90DF90CF90BF90AF909F90F8
:100FC0008F9008958091890290918A02A0918B025E
:100FD000B0918C02892B8A2B8B2B09F480CF0E9435
:100FE00050038090890290908A02A0908B02B0906A
:100FF0008C026C197D098E099F0986169706A80632
:10100000B90608F06CCF809188020E940506C0E006
:10101000CBCF85EEB1CF8091890290918A02A091C9
:101020008B02B0918C02892B8A2B8B2B09F4AACFCF
:101030000E9450030091890210918A0220918B0234
:1010400030918C026C197D098E099F0906171707CC
:101050002807390708F096CFD6CF91919D938F5FDF
:10106000A1CF0895E091600280915F02E81730F40B
:10107000F0E0E55CFD4F808190E008958FEF9FEFF9
:1010800008959091600280915F022FEF3FEF9817D3
:1010900048F4E92FF0E0E55CFD4F208130E09F5FF0
:1010A00090936002C901089580915F02909160025F
:1010B000891B990B0895CF92DF92EF92FF920F93C5
:1010C0001F93CF93DF937C01CB018A0120918D0286
:1010D000222389F0EB016B01C40ED51ECC15DD0572
:1010E00069F06991D701ED91FC910190F081E02DBB
:1010F000C7010995F3CF642F0E94A905C801DF91AC
:10110000CF911F910F91FF90EF90DF90CF900895B6
:10111000CF93DF931F92CDB7DEB7698320918D0205
:101120002223F9F02091B002203258F021E030E083
:10113000FC013383228390E080E00F90DF91CF9118
:10114000089580918E02E82FF0E0E157FD4F9981DC
:1011500090838F5F80938E028093B00281E090E055
:10116000ECCF61E0CE0101960E94A905F7CF90E097
:1011700080E00895CF93C62F272F30910001389F2C
:10118000C0011124EFE0F0E0BF010E94CF15462F0F
:10119000329FC0011124BF010E94CF15262F3C9F12
:1011A000C0011124BF010E94CF15362F622F70E0BD
:1011B00090E080E0982F872F762F6627842B632B73
:1011C000CF910895CF93DF9300D0CDB7DEB780687D
:1011D00089836A8380917D0390917E03FC01248141
:1011E00035812230310590F0208131E030938D023D
:1011F0002093AF0210928E021092B00221E042E0E2
:1012000050E0BE016F5F7F4F0E9416070F900F9056
:10121000DF91CF9108955F926F927F928F929F920C
:10122000AF92BF92CF92DF92EF92FF920F931F93F4
:10123000CF93DF93DC011496ED91FC911597EF2B82
:1012400009F465C069013A01EC01888191E090934D
:101250008D028093AF0210928E021092B00220E0B5
:1012600041E050E0CD010E941607582E882309F472
:101270004EC0F12CE12C8C819D8186010E191F0935
:101280008017910708F48C0141E0C601801B910B87
:10129000E816F90608F440E0602F013208F060E239
:1012A00088810E9459071092600280935F02801724
:1012B000110669F543018E0C9F1C5401C501881964
:1012C00099098017910768F489819A81DC01ED9171
:1012D000FC910284F385E02D0995F50181935F016E
:1012E000EDCFE00EF11EEC14FD0428F2852DDF9108
:1012F000CF911F910F91FF90EF90DF90CF90BF9013
:10130000AF909F908F907F906F905F900895512C39
:10131000EDCFCF93DF9300D0CDB7DEB71A8219821D
:101320008068898322E030E0AE014F5F5F4FBA01F1
:1013300080917D0390917E030E940B0989819A819F
:101340000F900F90DF91CF910895FF920F931F930D
:10135000CF93DF931F92CDB7DEB780917D0390913D
:101360007E03009711F00E948B1986E090E00E94A6
:10137000EF188C0189E2F80180838EE493E0928378
:101380008183138280E290E09583848310937E03AF
:1013900000937D030E94EE0581E0F8018383C8017C
:1013A0000E943407182F811109C010E0812F0F907F
:1013B000DF91CF911F910F91FF90089582E989836A
:1013C00021E030E0AE014F5F5F4FBA0180917D03B5
:1013D00090917E030E940B0989818D3421F0843421
:1013E00011F0803111F781E080937F030091820337
:1013F000602F0E94E2080093820300918003F09026
:10140000810380917F03811102C00E94A509602F92
:101410008FE00E94E20800938003F092810361E074
:1014200080E00E94E20863E070E080E090E00E94CB
:10143000480463E080E00E94E2088091820320E09B
:1014400031E0281B31094CE0429FC001439F900DC1
:10145000112465E070E00E94CF156F5F7F4F072E6B
:10146000000C880B990B0E944804A0CFFC0101904E
:101470000020E9F73197AF01481B590BBC0181EB04
:1014800092E00C947A048F929F92AF92BF920F9346
:101490001F93CF93DF93CDB7DEB7A1970FB6F89424
:1014A000DEBF0FBECDBF19A2423008F44AE08E0164
:1014B0000F5D1F4F842E912CB12CA12CA5019401FE
:1014C0000E94E315E62FB901CA01EA30F4F4E05DA9
:1014D000D801EE938D01232B242B252B79F790E057
:1014E00080E0109719F0CD010E94360AA1960FB640
:1014F000F894DEBF0FBECDBFDF91CF911F910F914A
:10150000BF90AF909F908F900895E95CE1CFCF930B
:10151000DF93682F70E090E080E04AE00E94430A89
:10152000EC018BE291E00E94360A8C0F9D1FDF9147
:10153000CF910895CF93DF930E946705EC018BE272
:1015400091E00E94360A8C0F9D1FDF91CF91089584
:1015500085E591E00E949A0A8EE391E00E949A0A42
:1015600089E291E00E949A0A86E191E00E949A0A3B
:1015700081E091E00E949A0A8BEE90E00E949A0A24
:1015800085ED90E00E949A0A82EC90E00E94670547
:10159000809100010E94870A8BE291E00C94360A48
:1015A00085ED8093BC008091890290918A02A09180
:1015B0008B02B0918C020796A11DB11D23E0B69558
:1015C000A795979587952A95D1F72091BC0024FD82
:1015D00003C01092870208954091890250918A02B7
:1015E00060918B0270918C02452B462B472B69F33F
:1015F0000097A105B10541F02AE22A95F1F700C054
:101600000197A109B109E1CF809188020C940506E8
:101610001F920F920FB60F9211242F933F938F9327
:101620009F93AF93BF938091330290913402A09126
:101630003502B09136023091320223E0230F2D376C
:1016400058F50196A11DB11D2093320280933302FB
:1016500090933402A0933502B09336028091370202
:1016600090913802A0913902B0913A020196A11DE1
:10167000B11D8093370290933802A0933902B09342
:101680003A02BF91AF919F918F913F912F910F900F
:101690000FBE0F901F90189526E8230F0296A11DEC
:1016A000B11DD2CF1F920F920FB60F9211242F931C
:1016B0003F934F935F936F937F938F939F93AF93DA
:1016C000BF93EF93FF9381EB92E00E94F804FF91A8
:1016D000EF91BF91AF919F918F917F916F915F91AA
:1016E0004F913F912F910F900FBE0F901F90189523
:1016F0001F920F920FB60F9211242F938F939F93E7
:10170000EF93FF93E091C102F091C2028081E091DA
:10171000C702F091C80282FD1BC090818091CA026D
:101720008F5F8F732091CB02821741F0E091CA0244
:10173000F0E0EF54FD4F958F8093CA02FF91EF9137
:101740009F918F912F910F900FBE0F901F90189522
:101750008081F4CF1F920F920FB60F9211242F9316
:101760003F934F935F936F937F938F939F93AF9329
:10177000BF93EF93FF938091B900887F803609F47F
:101780004AC0F0F5883209F4A7C018F5803109F491
:101790009BC0B8F4882309F4F9C0883009F494C0D8
:1017A000FF91EF91BF91AF919F918F917F916F9139
:1017B0005F914F913F912F910F900FBE0F901F900F
:1017C0001895883109F488C0803251F780938502DA
:1017D00014C0803409F49DC040F48033B9F38833D9
:1017E000F9F68093850285ECB0C0803509F485C098
:1017F000883509F496C0883499F60E94D00AD0CF73
:10180000883909F48CC038F5883729F050F48836C7
:1018100011F0803729F683E08093870210927D01D2
:1018200057C0883809F47BC0803919F0803809F036
:10183000B7CF80917D01803208F071C0E0917D01C9
:1018400081E08E0F80937D018091BB00F0E0E35A30
:10185000FE4F80833DC0803B39F0E0F4803A09F4CC
:1018600079C0883A09F09CCF84E080938702109277
:101870005C0110925B01E0915D02F0915E020995BE
:1018800080915B0181110FC081E080935B01109218
:101890003B0109C0803C09F4A6CF883C09F4A3CFE2
:1018A000883B09F07DCFE0915C0181E08E0F809351
:1018B0005C01F0E0E55CFE4F80818093BB0090917D
:1018C0005C0180915B0129C0809162028093BB0022
:1018D00085EC8093BC0064CF909184028091830258
:1018E000981758F5E091840281E08E0F809384026E
:1018F000F0E0ED59FD4F8081E9CFE091840281E075
:101900008E0F809384028091BB00F0E0ED59FD4F73
:10191000808390918402809183029817C8F285E8B1
:10192000D8CFE091840281E08E0F80938402809171
:10193000BB00F0E0ED59FD4F80838091860281115C
:101940005CCF81E08093610284EA8093BC001092B6
:10195000870226CF85EC8093BC001092870280918D
:101960007D01803230F4E0917D01F0E0E35AFE4FDA
:10197000108260917D0170E0E0915B02F0915C0269
:101980008DE591E0099510927D010ACF10928502B4
:1019900034CF1092B4021092B30288EE93E0A0E02C
:1019A000B0E08093B5029093B602A093B702B093D3
:1019B000B8022BE031E03093B2022093B10225EC63
:1019C00030E03093BE022093BD0224EC30E030932F
:1019D000C0022093BF0220EC30E03093C20220937B
:1019E000C10221EC30E03093C4022093C30222EC08
:1019F00030E03093C6022093C50226EC30E03093ED
:101A0000C8022093C7021092CA021092CB02109211
:101A1000CC021092CD021092510310925003809389
:101A2000520390935303A0935403B09355038DE155
:101A300091E090934F0380934E0310929203109283
:101A400099031092A0031092A1031092A203109286
:101A5000A30381E080939F0380939C0310929D03D6
:101A600092E090939E038093910388E190E090939D
:101A70009603809395030E94EF1890939B038093A5
:101A80009A03009709F4ABC028E1FC0111922A9552
:101A9000E9F788E090E0909394038093930386E0C5
:101AA00090E090939803809397038091920388230A
:101AB00041F061E086E00E941F0360E086E00E9442
:101AC000D302EAE5F4E0E491F0E0EE0FFF1FE65BFD
:101AD000FB4F859194919093A5038093A403ECE32D
:101AE000F4E0E491E093A60385E4809384038AE91B
:101AF00099E9A9E9BFE38093850390938603A093B6
:101B00008703B093880310928A031092890383E2BB
:101B1000809383038EE493E090938C0380938B03F4
:101B200010927E0310927D0310927F031092820325
:101B3000109281031092800310927B0310927A031B
:101B400010927C0380E09FEFA0E0B0E080935A0306
:101B500090935B03A0935C03B0935D0380935E035B
:101B600090935F03A0936003B0936103809362033B
:101B700090936303A0936403B0936503809366031B
:101B800090936703A0936803B093690380E09FEB91
:101B9000AFEFB0E080936A0390936B03A0936C0364
:101BA000B0936D0380936E0390936F03A0937003C3
:101BB000B09371038093720390937303A0937403A3
:101BC000B093750380E090E0AFEFB0E080937603D0
:101BD00090937703A0937803B093790308951092BC
:101BE000960310929503109294031092930357CF8B
:101BF000CF93DF93CDB7DEB729970FB6F894DEBF4A
:101C00000FBECDBF789484B5826084BD84B58160F9
:101C100084BD85B5826085BD85B5816085BD8091B7
:101C20006E00816080936E0010928100809181002F
:101C30008260809381008091810081608093810027
:101C4000809180008160809380008091B1008460E9
:101C50008093B1008091B00081608093B00080914A
:101C60007A00846080937A0080917A008260809309
:101C70007A0080917A00816080937A0080917A0066
:101C8000806880937A001092C100E091C102F091C7
:101C9000C20282E08083E091BD02F091BE02108218
:101CA000E091BF02F091C00280E180831092C902EE
:101CB000E091C502F091C60286E08083E091C30204
:101CC000F091C402808180618083E091C302F09131
:101CD000C402808188608083E091C302F091C402D5
:101CE000808180688083E091C302F091C40280818A
:101CF0008F7D80830E94EE058091970390919803D9
:101D000097FD44C061E00E941F0360E0809197034B
:101D10000E94D30281E0809392030E94750361E0E8
:101D200089E00E941F0360E089E00E94D30223E261
:101D30002093830380918B0390918C0301E00093A7
:101D40008D022093AF0210928E021092B002DC013D
:101D5000ED91FC910190F081E02D60E1099581E029
:101D60000E942606182F6AE070E080E090E00E9452
:101D70004804123009F498C060F41123C9F08AEEC7
:101D800092E0113071F087E492E00BC01092920360
:101D9000C4CF83E892E0133021F087E692E014305C
:101DA00091F70E949A0A89E593E00E949A0A82C0FC
:101DB00080E190E090938A03809389032FB7F89491
:101DC0008091330290913402A0913502B091360295
:101DD0002FBF80938D0390938E03A0938F03B093B6
:101DE000900380918B0390918C0320918303009347
:101DF0008D022093AF0210928E021092B00262E424
:101E000070E00E94A20581E00E942606182F8091B2
:101E10008B0390918C032091830300938D02209378
:101E2000AF0210928E021092B00265E670E00E943E
:101E3000A20581E00E942606182B80918B039091C9
:101E40008C032091830300938D022093AF021092A4
:101E50008E021092B0026091890370918A030E94F1
:101E6000A20581E00E942606182B6AE070E080E05F
:101E700090E00E944804123009F4AEC050F41123DF
:101E8000B1F08AE192E0113009F48BCF87E791E05D
:101E900088CF83EB91E0133009F483CF87E991E099
:101EA000143009F47ECFF2CF85EB92E07ACF85E44F
:101EB000809384030E94A509811104C088E393E004
:101EC0000E949A0A8AE580937C0380917A0390911C
:101ED0007B03009711F00E948B1986E090E00E942E
:101EE000EF188C018AE5F80180838EE493E09283F9
:101EF0008183138280E290E09583848310937B0337
:101F000000937A030E94EE0581E0D80113968C932A
:101F1000C8010E943407811104C087E193E00E9448
:101F20009A0A80E2E2E8F1E0DF01282F1D922A956B
:101F3000E9F7EFEDF1E0DF011D928A95E9F7E3E0C3
:101F4000F2E088E2DF011D928A95E9F7E2EAF1E02A
:101F50008CE3DF011D928A95E9F70E94A80A3AE016
:101F6000232E312C8FB7F894809033029090340256
:101F7000A0903502B09036028FBF81EB92E00E94B4
:101F8000D804892B89F081EB92E00E94B6048C344E
:101F900009F466C05CF58F3331F10CF58B3209F42E
:101FA00068C08D3209F475C0809130029091310281
:101FB0008130910509F4F1C108F476C0029709F463
:101FC000ADC380E090E0892B69F20E94E40488238D
:101FD00031F20E940000C3CF85EE91E0E2CE83345F
:101FE00061F0883409F70E94A80ADECF8836D9F359
:101FF000DCF48435F1F08336B9F6E1E0F0E0F093FB
:102000003102E09330028BEA93E00E949A0A61E089
:1020100089E00E94D3028CE3A2EAB1E01D928A9586
:10202000E9F71092DE01C0CF8C36D1F0843709F089
:10203000BBCFE2E0F0E0F0933102E09330028EE8B3
:1020400093E00E949A0A60E089E00E94D30288E24D
:10205000A3E0B2E01D928A95E9F710922B02A4CF7B
:10206000109231021092300286EC93E00E949A0A9C
:102070009BCF109100011F3008F096CF1F5F109387
:10208000000183E893E00E946705812F0E94870A80
:102090008BCF10910001112309F486CF11501093BA
:1020A000000188E793E0EFCF80917E0190917F015E
:1020B000A0918001B0918101A5019401281B390BE9
:1020C0004A0B5B0BDA01C90184369105A105B10504
:1020D00008F477CF80927E0190927F01A0928001D8
:1020E000B09281018091890390918A03892B29F410
:1020F00083EE93E00E949A0A64CF41E062E080910F
:1021000083030E9459071092600280935F02C12CE2
:10211000D12C20E8E22E2FEBF22E823019F580919F
:102120008B0390918C03DC01ED91FC910284F3858B
:10213000E02D09958D831C8280918B0390918C03F7
:10214000DC01ED91FC910284F385E02D0995EC8191
:10215000FD818E2B9F2BBC0190E080E00E943917FF
:102160006B017C012FB7F894809133029091340277
:10217000A0913502B09136022FBF80938D039093CA
:102180008E03A0938F03B093900320E030E040E8EB
:102190005FEBC701B6010E948C16882309F411CFAA
:1021A000609184036534A9F070E090E080E00E94C3
:1021B00039179B01AC0160E070E08AE892E40E946C
:1021C00091169B01AC01C701B6010E9448186B0132
:1021D0007C018091890390918A038132910511F0ED
:1021E000419751F420E030E040E05FE3C701B601E1
:1021F0000E9448186B017C01209185033091860371
:102200004091870350918803C701B6010E9491163F
:102210006B017C0120E030E0A9010E94EB1787FDF3
:10222000D0CE20E030E040E85FE3C701B6010E9475
:102230008C1687FD5EC020E030E040E857E4C7011F
:10224000B6010E94EB17181634F4C12CD12C90E87B
:10225000E92E97E4F92EC701B6010E94F0172BE989
:1022600030E24AE950E40E94911620E030E040E07C
:1022700054E40E9448180E9403176115F2E07F079A
:1022800014F06FEF71E077FF02C070E060E06B0167
:10229000B6E0D594C794BA95E1F76F7377277B01C1
:1022A000F694E794F694E794409195035091960341
:1022B00070E060E080919A0390919B030E94141A51
:1022C0000AE5A02E03E0B02E10E000E0C016D10613
:1022D000B9F0D5016D917D918D919D915D010E9427
:1022E000BA08AB01BC01C8010E9462020F5F1F4F18
:1022F000EDCFC12CD12C80E8E82E8FE3F82EABCFA8
:10230000F601EE0FFF1FEE0FFF1FE65AFC4F408154
:10231000518182818E9DB0018F9D700D112434E01A
:10232000759567953A95E1F78B01770F220B330B83
:102330009801112700275E9DB0015F9D700D11244B
:10234000E4E075956795EA95E1F7072E000C880B98
:10235000990B982F872F762F6627602B712B822B56
:10236000932B4E9D80014F9D100D1124A4E01595D7
:102370000795AA95E1F7012E000C220B330B602B79
:10238000712B822B932B0E94BA08AB01BC01C601B2
:102390000E9462020E94750314CE80912C029091DB
:1023A0002D02A0912E02B0912F02A5019401281BAD
:1023B000390B4A0B5B0BDA01C90184369105A10583
:1023C000B10508F44BC080922C0290922D02A0928D
:1023D0002E02B0922F0280917F03811102C00E94D1
:1023E000A50984E10E94890986E10E9489096C019E
:1023F00088E10E9489097C018AE10E9489098C0197
:102400008091820320E031E0281B31094CE0429F9B
:10241000C001439F900D112465E070E00E94CF152C
:102420006F5F7F4F072E000C880B990B0E944804AA
:10243000E091DE018E2F90E036E0E39FF001112461
:10244000EE55FE4FD182C082F382E282158304836F
:102450000196B1010E94CF158093DE018091FF01AA
:1024600090910002A0910102B0910202A501940195
:10247000281B390B4A0B5B0BDA01C901883E9340DC
:10248000A105B10508F49DCD8092FF019092000254
:10249000A0920102B0920202E2EAF1E0C12CD12C3A
:1024A0007601812C912C540160E070E0CB012081F9
:1024B0003181620F731F811D911D22813381820E34
:1024C000931EA11CB11C24813581C20ED31EE11CB8
:1024D000F11C36964EED51E04E175F0741F72AE0AA
:1024E00030E040E050E00E94E31529013A01C501C7
:1024F000B4012AE030E040E050E00E94E3154901D9
:102500005A01C701B6012AE030E040E050E00E94E5
:10251000E3152E833F8348875987C301B201680DB5
:10252000791D8A1D9B1D620F731F841F951F6115E6
:1025300071058105910509F4EDC00E9439176B0101
:102540007C01C301B2010E94391720E030E04FE75F
:1025500053E40E944818A70196010E9491162B018E
:102560003C0120E030E04FE753E40E94EB171FEFFF
:1025700018162CF0C301B2010E940A17162FC501CC
:10258000B4010E94391720E030E04FE753E40E9485
:102590004818A70196010E9491164B015C0120E0AA
:1025A00030E04FE753E40E94EB170FEF18162CF0C2
:1025B000C501B4010E940A17062F6E817F818885AC
:1025C00099850E94391720E030E04FE753E40E94DC
:1025D0004818A70196010E9491164B015C0120E06A
:1025E00030E04FE753E40E94EB1718160CF487C055
:1025F000C501B4010E940A17B62E20E030E64AEE6B
:1026000056E4C701B6010E9491166B017C012DECC6
:102610003CEC4CEC5DE30E948C1687FD73C020E01F
:1026200030E040E85FE3C701B6010E94EB171816DF
:1026300034F4C12CD12C90E8E92E9FE3F92E612FC0
:1026400070E090E080E00E943B17A70196010E9495
:1026500048180E940A17A62E602F70E090E080E0D4
:102660000E943B17A70196010E9448180E940A1772
:10267000162F6B2D70E090E080E00E943B17A701C1
:1026800096010E9448180E940A17812F90E0B0E03E
:10269000A0E0BA2FA92F982F8827AA29862B0EE908
:1026A000E02E01E0F02EF701729162915291429179
:1026B0007F01448355836683778322E831E02E17B8
:1026C0003F0789F78093820190938301A09384014F
:1026D000B093850110E000E0D7016D917D918D915F
:1026E0009D917D010E94BA08AB01BC01C8010E9406
:1026F00062020F5F1F4F0830110571F74BCEBB24EC
:10270000BA947BCF8DECC82E8CECD82EED2C8DE3BB
:10271000F82E95CF60E010E0A12CB7CF80912C026D
:1027200090912D02A0912E02B0912F02A50194014B
:10273000281B390B4A0B5B0BDA01C9018436910562
:10274000A105B10508F44DC080922C0290922D0293
:10275000A0922E02B0922F0287E0898323E030E01E
:10276000AE014F5F5F4FBA0180917A0390917B0376
:102770000E940B0969817A81811102C070E060E0DA
:1027800090E080E00E9439176B017C0120E030E08E
:10279000A9010E948C16882309F4F7C02AE037EDBE
:1027A00043EA5CE3C701B6010E94481823E333E91A
:1027B00048E853E40E941F1620912B0230E0F901F3
:1027C000EE0FFF1FEE0FFF1FED5FFD4F6083718364
:1027D00082839383C9010196B1010E94CF15809332
:1027E0002B028091FF0190910002A0910102B09113
:1027F0000202A5019401281B390B4A0B5B0BDA017D
:10280000C901883E9340A105B10508F4DACB809256
:10281000FF0190920002A0920102B092020203E036
:1028200012E05BE2E52E52E0F52E60E070E0CB01B5
:10283000D8012D913D914D915D918D010E94201601
:10284000E016F106A9F720E030E040E251E40E94F2
:1028500091166B017C018AE094E00E946705A70154
:102860009601C701B6010E94B518882309F492C0E9
:102870008EE291E00E94360A86E094E00E949A0A75
:102880000BEF11E08FED91E0F8017291629152919E
:1028900042918F0144835583668377838E179F0708
:1028A00099F7C092DF01D092E001E092E101F0924D
:1028B000E201F12CE12CF80181909190A190B1906E
:1028C0008F0120E030E0A901C501B4010E948C16FF
:1028D00087FDD6C020E030E048EC52E4C501B401E9
:1028E0000E94EB17181634F4812C912C48ECA42E7E
:1028F00042E4B42E20E030E048EC52E4C501B401DB
:102900000E9491164B015C0120E030E040E85EE35C
:102910000E948C1687FFB8C020E030E040E850E409
:10292000C501B4010E9448184B015C0120E030E071
:1029300040E053E40E9448180E940A17D62E20E077
:1029400030E04FE753E4C501B4010E9448180E94EB
:102950000A17262F60E0862F90E0B0E0A0E06627FF
:10296000782F892F9A2F8D29622B0E94BA08AB01EC
:10297000BC01C7010E946202FFEFEF1AFF0A28E0C4
:10298000E216F10409F097CF05CD60E070E080EC2D
:102990009FE712CF46015701E894B7F82FEF3FEFBA
:1029A0004FE75FE7C501B4010E94B51881110DC062
:1029B0002FEF3FEF4FE75FE7C501B4010E948C1690
:1029C00018161CF482E391E055CF2FEF3FEF4FE74D
:1029D0005FE4C701B6010E94EB1718161CF486E3EA
:1029E00091E048CF2FEF3FEF4FE75FECC701B60113
:1029F0000E948C1687FDF3CF20E030E0A901C701CB
:102A0000B6010E948C1687FF38C06DE281EB92E020
:102A10000E941A05C701B60190582DEC3CEC4CE41D
:102A20005DE30E9420162B013C010E940A174B0116
:102A30005C010E9439179B01AC01C301B2010E94E5
:102A40001F162B013C014AE0C501B4010E94430A54
:102A50006EE281EB92E00E941A0520E030E040E255
:102A600051E4C301B2010E9448180E940A1790E085
:102A700080E04AE00E94430AFFCEC701B601CDCFF5
:102A8000812C912C540136CF20E030E040E05FE310
:102A9000C501B4010E948C1687FF2CC020E030E0F5
:102AA00040E85EE3C501B4010E941F1620E030E05B
:102AB00040E850E40E9448184B015C0120E030E0FF
:102AC0004EEF52E40E94481820E030E040E053E42A
:102AD0000E9420160E940A17D62EA501940160E0DC
:102AE00070E080E89FE30E941F1620E030E04FE78F
:102AF00053E42BCF20E030E040E45FE3C501B401B4
:102B00000E948C1687FF1AC020E030E040E05FE3AF
:102B1000C501B4010E941F1620E030E040E850E4F7
:102B20000E94481820E030E04FE753E40E94481824
:102B30000E940A1720E0DD24DA940DCF20E030E077
:102B400040E45FE3C501B4010E941F1620E030E0BD
:102B500040E850E40E94481820E030E04FE753E49A
:102B60000E9448180E940A17262F6FEFE4CF809129
:102B70007A0390917B03009711F00E948B1980914A
:102B80009A0390919B030E948B19809197039091D7
:102B9000980397FD03C060E00C941F03089597FB12
:102BA000072E16F4009407D077FD09D00E94051671
:102BB00007FC05D03EF4909581959F4F0895709540
:102BC00061957F4F0895A1E21A2EAA1BBB1BFD0140
:102BD0000DC0AA1FBB1FEE1FFF1FA217B307E407FC
:102BE000F50720F0A21BB30BE40BF50B661F771F54
:102BF000881F991F1A9469F7609570958095909534
:102C00009B01AC01BD01CF010895AA1BBB1B51E183
:102C100007C0AA1FBB1FA617B70710F0A61BB70B4C
:102C2000881F991F5A95A9F780959095BC01CD01F1
:102C30000895EE0FFF1F0590F491E02D0994505870
:102C4000BB27AA270E9437160C94B1170E94A3171E
:102C500038F00E94AA1720F039F49F3F19F426F4A7
:102C60000C94A0170EF4E095E7FB0C949A17E92F4B
:102C70000E94C21758F3BA176207730784079507B3
:102C800020F079F4A6F50C94E4170EF4E0950B2EE1
:102C9000BA2FA02D0B01B90190010C01CA01A001AE
:102CA0001124FF27591B99F0593F50F4503E68F109
:102CB0001A16F040A22F232F342F4427585FF3CF4A
:102CC000469537952795A795F0405395C9F77EF41B
:102CD0001F16BA0B620B730B840BBAF09150A1F064
:102CE000FF0FBB1F661F771F881FC2F70EC0BA0FEA
:102CF000621F731F841F48F4879577956795B79572
:102D0000F7959E3F08F0B0CF9395880F08F099276C
:102D1000EE0F9795879508950E94761708F481E045
:102D200008950E94A5160C94B1170E94AA1758F096
:102D30000E94A31740F029F45F3F29F00C949A17E2
:102D400051110C94E5170C94A0170E94C21768F358
:102D50009923B1F3552391F3951B550BBB27AA2754
:102D600062177307840738F09F5F5F4F220F331F8E
:102D7000441FAA1FA9F335D00E2E3AF0E0E832D056
:102D800091505040E695001CCAF72BD0FE2F29D059
:102D9000660F771F881FBB1F261737074807AB072B
:102DA000B0E809F0BB0B802DBF01FF2793585F4FA0
:102DB0003AF09E3F510578F00C949A170C94E51761
:102DC0005F3FE4F3983ED4F3869577956795B79582
:102DD000F7959F5FC9F7880F911D9695879597F98D
:102DE0000895E1E0660F771F881FBB1F6217730706
:102DF0008407BA0720F0621B730B840BBA0BEE1F1B
:102E000088F7E09508950E940A176894B1110C9410
:102E1000E51708950E94CA1788F09F5798F0B92FB8
:102E20009927B751B0F0E1F0660F771F881F991FFF
:102E30001AF0BA95C9F714C0B13091F00E94E417A6
:102E4000B1E008950C94E417672F782F8827B85FB6
:102E500039F0B93FCCF3869577956795B395D9F757
:102E60003EF490958095709561957F4F8F4F9F4F61
:102E70000895E89409C097FB3EF49095809570956D
:102E800061957F4F8F4F9F4F9923A9F0F92F96E9B6
:102E9000BB279395F695879577956795B795F1112B
:102EA000F8CFFAF4BB0F11F460FF1BC06F5F7F4FC8
:102EB0008F4F9F4F16C0882311F096E911C07723DA
:102EC00021F09EE8872F762F05C0662371F096E8E3
:102ED000862F70E060E02AF09A95660F771F881FB2
:102EE000DAF7880F9695879597F90895990F000856
:102EF000550FAA0BE0E8FEEF16161706E807F907CC
:102F0000C0F012161306E407F50798F0621B730B66
:102F1000840B950B39F40A2661F0232B242B252BE7
:102F200021F408950A2609F4A140A6958FEF811D8A
:102F3000811D089597F99F6780E870E060E008952B
:102F40009FEF80EC089500240A94161617061806C1
:102F50000906089500240A9412161306140605069D
:102F60000895092E0394000C11F4882352F0BB0F2E
:102F700040F4BF2B11F460FF04C06F5F7F4F8F4F91
:102F80009F4F089557FD9058440F551F59F05F3FCC
:102F900071F04795880F97FB991F61F09F3F79F07B
:102FA00087950895121613061406551FF2CF4695FD
:102FB000F1DF08C0161617061806991FF1CF86957F
:102FC0007105610508940895E894BB276627772763
:102FD000CB0197F908950E94761708F48FEF0895B2
:102FE0000E94001829ED3BE54EED5EE30C94481875
:102FF00016F00C94BA180C94A01768940C949A17B5
:103000000E94CA17A8F39923C1F3AEF3DF93CF93BD
:103010001F930F93FF92C92FDD2788232AF0219752
:10302000660F771F881FDAF720E030E040E85FEB9B
:103030009FE3883920F0803E38F021968F770E94F8
:103040002016E8E6F0E004C00E942016E5E9F0E072
:103050000E94C8188B01BE01EC01FB2E6F5771094D
:103060007595771F880B990B0E943B1728E132E773
:1030700041E35FE30E945B18AF2D9801AE01FF9022
:103080000F911F91CF91DF910E9437160C94B117C9
:103090000E945B180C94B1170E94A31738F00E948D
:1030A000AA1720F0952311F00C949A170C94A017EE
:1030B00011240C94E5170E94C21770F3959FC1F379
:1030C000950F50E0551F629FF001729FBB27F00DD6
:1030D000B11D639FAA27F00DB11DAA1F649F66272B
:1030E000B00DA11D661F829F2227B00DA11D621F7A
:1030F000739FB00DA11D621F839FA00D611D221F34
:10310000749F3327A00D611D231F849F600D211D17
:10311000822F762F6A2F11249F5750409AF0F1F09A
:1031200088234AF0EE0FFF1FBB1F661F771F881F03
:1031300091505040A9F79E3F510580F00C949A178A
:103140000C94E5175F3FE4F3983ED4F386957795AA
:103150006795B795F795E7959F5FC1F7FE2B880FA9
:10316000911D9695879597F908950E947617880B7B
:10317000990B08959F3F31F0915020F487957795F2
:103180006795B795880F911D9695879597F908953E
:10319000DF93CF931F930F93FF92EF92DF927B0108
:1031A0008C01689406C0DA2EEF010E945B18FE01C4
:1031B000E894A5912591359145915591A6F3EF019C
:1031C0000E943716FE019701A801DA9469F7DF9093
:1031D000EF90FF900F911F91CF91DF9108950F9382
:1031E0001F93CF93DF938230910510F482E090E03B
:1031F000E091A903F091AA0330E020E0B0E0A0E064
:10320000309799F42115310509F44AC0281B390B70
:1032100024303105D8F58A819B816115710589F1CA
:10322000FB0193838283FE0111C0408151810281A1
:10323000138148175907E0F04817590799F4109778
:1032400061F012960C93129713961C933296CF014D
:10325000DF91CF911F910F9108950093A9031093CF
:10326000AA03F4CF2115310551F04217530738F066
:10327000A901DB019A01BD01DF01F801C1CFEF0116
:10328000F9CF9093AA038093A903CDCFFE01E20F5B
:10329000F31F819391932250310939832883D7CF2B
:1032A0002091A7033091A803232B41F4209103011F
:1032B000309104013093A8032093A70320910101CA
:1032C000309102012115310541F42DB73EB74091EF
:1032D000050150910601241B350BE091A703F091E5
:1032E000A803E217F307A0F42E1B3F0B281739079A
:1032F00078F0AC014E5F5F4F2417350748F04E0F52
:103300005F1F5093A8034093A703819391939FCF8E
:10331000F0E0E0E09CCFCF93DF930097E9F0FC0171
:10332000329713821282A091A903B091AA03ED01F2
:1033300030E020E01097A1F420813181820F931FAB
:103340002091A7033091A8032817390709F061C01D
:10335000F093A803E093A703DF91CF910895EA01CA
:10336000CE17DF07E8F54A815B819E0141155105C3
:10337000B1F7E901FB83EA8349915991C40FD51F45
:10338000EC17FD0761F4808191810296840F951FEF
:10339000E90199838883828193819B838A83F0E00A
:1033A000E0E012968D919C9113970097B9F52D91BD
:1033B0003C911197CD010296820F931F2091A70394
:1033C0003091A8032817390739F6309751F5109234
:1033D000AA031092A903B093A803A093A703BCCF9C
:1033E000D383C28340815181840F951FC817D907A9
:1033F00061F44E5F5F4F88819981480F591F518357
:1034000040838A819B81938382832115310509F052
:10341000B0CFF093AA03E093A9039ECFFD01DC0196
:10342000C0CF13821282D7CFDC0101C06D9341500F
:103430005040E0F7089512E0C5E3D2E004C0FE0179
:103440000E9419162196C633D107C9F7F894FFCF09
:10345000080000AB038000000000001A057A04A7F2
:10346000048205D804B604CA040000000088085B82
:1034700008B70831085408410832080D0A006E6187
:0A3480006E00696E66006F7666004C
:00000001FF
